{
  "_format": "hh3-artifact-1",
  "contractName": "UsdtLottoManual",
  "sourceName": "contracts/UsdtLottoManual.sol",
  "abi": [
    {
      "inputs": [
        {
          "internalType": "address",
          "name": "usdtToken",
          "type": "address"
        },
        {
          "internalType": "address",
          "name": "initialOwner",
          "type": "address"
        },
        {
          "internalType": "uint256",
          "name": "ticketPriceUnits",
          "type": "uint256"
        },
        {
          "internalType": "uint256",
          "name": "maxPerBuy",
          "type": "uint256"
        },
        {
          "internalType": "uint16",
          "name": "adminFeeBasisPoints",
          "type": "uint16"
        },
        {
          "internalType": "address",
          "name": "feeReceiverAddr",
          "type": "address"
        },
        {
          "internalType": "uint8[6]",
          "name": "pctSplit",
          "type": "uint8[6]"
        },
        {
          "internalType": "uint256",
          "name": "leadTimeSeconds",
          "type": "uint256"
        },
        {
          "internalType": "uint256",
          "name": "firstDrawTimestamp",
          "type": "uint256"
        },
        {
          "internalType": "bytes32",
          "name": "firstCommitHash",
          "type": "bytes32"
        }
      ],
      "stateMutability": "nonpayable",
      "type": "constructor"
    },
    {
      "inputs": [
        {
          "internalType": "address",
          "name": "owner",
          "type": "address"
        }
      ],
      "name": "OwnableInvalidOwner",
      "type": "error"
    },
    {
      "inputs": [
        {
          "internalType": "address",
          "name": "account",
          "type": "address"
        }
      ],
      "name": "OwnableUnauthorizedAccount",
      "type": "error"
    },
    {
      "inputs": [],
      "name": "ReentrancyGuardReentrantCall",
      "type": "error"
    },
    {
      "inputs": [
        {
          "internalType": "address",
          "name": "token",
          "type": "address"
        }
      ],
      "name": "SafeERC20FailedOperation",
      "type": "error"
    },
    {
      "anonymous": false,
      "inputs": [
        {
          "indexed": true,
          "internalType": "uint256",
          "name": "roundId",
          "type": "uint256"
        },
        {
          "indexed": false,
          "internalType": "bytes32",
          "name": "secretHash",
          "type": "bytes32"
        },
        {
          "indexed": false,
          "internalType": "bytes32",
          "name": "seed",
          "type": "bytes32"
        },
        {
          "indexed": false,
          "internalType": "uint256",
          "name": "potAfterFee",
          "type": "uint256"
        },
        {
          "indexed": false,
          "internalType": "uint256",
          "name": "adminFee",
          "type": "uint256"
        }
      ],
      "name": "DrawRevealed",
      "type": "event"
    },
    {
      "anonymous": false,
      "inputs": [
        {
          "indexed": true,
          "internalType": "uint256",
          "name": "roundId",
          "type": "uint256"
        },
        {
          "indexed": true,
          "internalType": "address",
          "name": "receiver",
          "type": "address"
        },
        {
          "indexed": false,
          "internalType": "uint256",
          "name": "amount",
          "type": "uint256"
        }
      ],
      "name": "FeePaid",
      "type": "event"
    },
    {
      "anonymous": false,
      "inputs": [
        {
          "indexed": true,
          "internalType": "address",
          "name": "previousOwner",
          "type": "address"
        },
        {
          "indexed": true,
          "internalType": "address",
          "name": "newOwner",
          "type": "address"
        }
      ],
      "name": "OwnershipTransferred",
      "type": "event"
    },
    {
      "anonymous": false,
      "inputs": [
        {
          "indexed": true,
          "internalType": "uint256",
          "name": "roundId",
          "type": "uint256"
        },
        {
          "indexed": false,
          "internalType": "uint256",
          "name": "drawTimestamp",
          "type": "uint256"
        },
        {
          "indexed": false,
          "internalType": "uint256",
          "name": "salesCloseTimestamp",
          "type": "uint256"
        },
        {
          "indexed": false,
          "internalType": "bytes32",
          "name": "commitHash",
          "type": "bytes32"
        }
      ],
      "name": "RoundStarted",
      "type": "event"
    },
    {
      "anonymous": false,
      "inputs": [
        {
          "indexed": true,
          "internalType": "uint256",
          "name": "roundId",
          "type": "uint256"
        },
        {
          "indexed": false,
          "internalType": "uint256",
          "name": "whenClosed",
          "type": "uint256"
        }
      ],
      "name": "SalesClosed",
      "type": "event"
    },
    {
      "anonymous": false,
      "inputs": [
        {
          "indexed": true,
          "internalType": "uint256",
          "name": "roundId",
          "type": "uint256"
        },
        {
          "indexed": true,
          "internalType": "address",
          "name": "buyer",
          "type": "address"
        },
        {
          "indexed": false,
          "internalType": "uint256",
          "name": "qty",
          "type": "uint256"
        },
        {
          "indexed": false,
          "internalType": "uint256",
          "name": "cost",
          "type": "uint256"
        },
        {
          "indexed": false,
          "internalType": "uint256",
          "name": "firstTicketId",
          "type": "uint256"
        },
        {
          "indexed": false,
          "internalType": "uint256",
          "name": "lastTicketId",
          "type": "uint256"
        }
      ],
      "name": "TicketsBought",
      "type": "event"
    },
    {
      "anonymous": false,
      "inputs": [
        {
          "indexed": true,
          "internalType": "uint256",
          "name": "roundId",
          "type": "uint256"
        },
        {
          "indexed": true,
          "internalType": "uint256",
          "name": "ticketId",
          "type": "uint256"
        },
        {
          "indexed": true,
          "internalType": "address",
          "name": "winner",
          "type": "address"
        },
        {
          "indexed": false,
          "internalType": "uint256",
          "name": "amount",
          "type": "uint256"
        },
        {
          "indexed": false,
          "internalType": "uint8",
          "name": "pct",
          "type": "uint8"
        }
      ],
      "name": "WinnerPaid",
      "type": "event"
    },
    {
      "inputs": [],
      "name": "adminFeeBps",
      "outputs": [
        {
          "internalType": "uint16",
          "name": "",
          "type": "uint16"
        }
      ],
      "stateMutability": "view",
      "type": "function"
    },
    {
      "inputs": [
        {
          "internalType": "uint256",
          "name": "qty",
          "type": "uint256"
        }
      ],
      "name": "buyTickets",
      "outputs": [],
      "stateMutability": "nonpayable",
      "type": "function"
    },
    {
      "inputs": [],
      "name": "closeSales",
      "outputs": [],
      "stateMutability": "nonpayable",
      "type": "function"
    },
    {
      "inputs": [],
      "name": "currentRound",
      "outputs": [
        {
          "internalType": "enum UsdtLottoManual.RoundState",
          "name": "state",
          "type": "uint8"
        },
        {
          "internalType": "uint256",
          "name": "drawTimestamp",
          "type": "uint256"
        },
        {
          "internalType": "uint256",
          "name": "salesCloseTimestamp",
          "type": "uint256"
        },
        {
          "internalType": "uint256",
          "name": "ticketsSold",
          "type": "uint256"
        },
        {
          "internalType": "uint256",
          "name": "startTicketId",
          "type": "uint256"
        },
        {
          "internalType": "bytes32",
          "name": "commitHash",
          "type": "bytes32"
        }
      ],
      "stateMutability": "view",
      "type": "function"
    },
    {
      "inputs": [],
      "name": "currentRoundRange",
      "outputs": [
        {
          "internalType": "uint256",
          "name": "startTicketId",
          "type": "uint256"
        },
        {
          "internalType": "uint256",
          "name": "endTicketId",
          "type": "uint256"
        },
        {
          "internalType": "uint256",
          "name": "sold",
          "type": "uint256"
        }
      ],
      "stateMutability": "view",
      "type": "function"
    },
    {
      "inputs": [],
      "name": "feeReceiver",
      "outputs": [
        {
          "internalType": "address",
          "name": "",
          "type": "address"
        }
      ],
      "stateMutability": "view",
      "type": "function"
    },
    {
      "inputs": [],
      "name": "getLastWinners",
      "outputs": [
        {
          "internalType": "uint256",
          "name": "_roundId",
          "type": "uint256"
        },
        {
          "internalType": "uint256",
          "name": "potAfterFee",
          "type": "uint256"
        },
        {
          "internalType": "uint256",
          "name": "adminFee",
          "type": "uint256"
        },
        {
          "internalType": "uint256[6]",
          "name": "ticketIds",
          "type": "uint256[6]"
        },
        {
          "internalType": "address[6]",
          "name": "winners",
          "type": "address[6]"
        },
        {
          "internalType": "uint256[6]",
          "name": "amounts",
          "type": "uint256[6]"
        }
      ],
      "stateMutability": "view",
      "type": "function"
    },
    {
      "inputs": [
        {
          "internalType": "uint256",
          "name": "ticketId",
          "type": "uint256"
        }
      ],
      "name": "isTicketActive",
      "outputs": [
        {
          "internalType": "bool",
          "name": "",
          "type": "bool"
        }
      ],
      "stateMutability": "view",
      "type": "function"
    },
    {
      "inputs": [],
      "name": "lastAdminFee",
      "outputs": [
        {
          "internalType": "uint256",
          "name": "",
          "type": "uint256"
        }
      ],
      "stateMutability": "view",
      "type": "function"
    },
    {
      "inputs": [],
      "name": "lastDrawRoundId",
      "outputs": [
        {
          "internalType": "uint256",
          "name": "",
          "type": "uint256"
        }
      ],
      "stateMutability": "view",
      "type": "function"
    },
    {
      "inputs": [],
      "name": "lastPotAfterFee",
      "outputs": [
        {
          "internalType": "uint256",
          "name": "",
          "type": "uint256"
        }
      ],
      "stateMutability": "view",
      "type": "function"
    },
    {
      "inputs": [
        {
          "internalType": "uint256",
          "name": "",
          "type": "uint256"
        }
      ],
      "name": "lastWinnerAddrs",
      "outputs": [
        {
          "internalType": "address",
          "name": "",
          "type": "address"
        }
      ],
      "stateMutability": "view",
      "type": "function"
    },
    {
      "inputs": [
        {
          "internalType": "uint256",
          "name": "",
          "type": "uint256"
        }
      ],
      "name": "lastWinnerAmounts",
      "outputs": [
        {
          "internalType": "uint256",
          "name": "",
          "type": "uint256"
        }
      ],
      "stateMutability": "view",
      "type": "function"
    },
    {
      "inputs": [
        {
          "internalType": "uint256",
          "name": "",
          "type": "uint256"
        }
      ],
      "name": "lastWinningTicketIds",
      "outputs": [
        {
          "internalType": "uint256",
          "name": "",
          "type": "uint256"
        }
      ],
      "stateMutability": "view",
      "type": "function"
    },
    {
      "inputs": [],
      "name": "maxTicketsPerBuy",
      "outputs": [
        {
          "internalType": "uint256",
          "name": "",
          "type": "uint256"
        }
      ],
      "stateMutability": "view",
      "type": "function"
    },
    {
      "inputs": [],
      "name": "nextTicketId",
      "outputs": [
        {
          "internalType": "uint256",
          "name": "",
          "type": "uint256"
        }
      ],
      "stateMutability": "view",
      "type": "function"
    },
    {
      "inputs": [],
      "name": "owner",
      "outputs": [
        {
          "internalType": "address",
          "name": "",
          "type": "address"
        }
      ],
      "stateMutability": "view",
      "type": "function"
    },
    {
      "inputs": [],
      "name": "renounceOwnership",
      "outputs": [],
      "stateMutability": "nonpayable",
      "type": "function"
    },
    {
      "inputs": [
        {
          "internalType": "bytes32",
          "name": "secret",
          "type": "bytes32"
        }
      ],
      "name": "revealAndDraw",
      "outputs": [],
      "stateMutability": "nonpayable",
      "type": "function"
    },
    {
      "inputs": [],
      "name": "roundId",
      "outputs": [
        {
          "internalType": "uint256",
          "name": "",
          "type": "uint256"
        }
      ],
      "stateMutability": "view",
      "type": "function"
    },
    {
      "inputs": [
        {
          "internalType": "uint256",
          "name": "",
          "type": "uint256"
        }
      ],
      "name": "rounds",
      "outputs": [
        {
          "internalType": "enum UsdtLottoManual.RoundState",
          "name": "state",
          "type": "uint8"
        },
        {
          "internalType": "uint256",
          "name": "drawTimestamp",
          "type": "uint256"
        },
        {
          "internalType": "uint256",
          "name": "salesCloseTimestamp",
          "type": "uint256"
        },
        {
          "internalType": "uint256",
          "name": "ticketsSold",
          "type": "uint256"
        },
        {
          "internalType": "uint256",
          "name": "startTicketId",
          "type": "uint256"
        },
        {
          "internalType": "bytes32",
          "name": "commitHash",
          "type": "bytes32"
        },
        {
          "internalType": "bool",
          "name": "commitSet",
          "type": "bool"
        }
      ],
      "stateMutability": "view",
      "type": "function"
    },
    {
      "inputs": [],
      "name": "salesCloseLeadTime",
      "outputs": [
        {
          "internalType": "uint256",
          "name": "",
          "type": "uint256"
        }
      ],
      "stateMutability": "view",
      "type": "function"
    },
    {
      "inputs": [
        {
          "internalType": "uint16",
          "name": "newBps",
          "type": "uint16"
        }
      ],
      "name": "setAdminFeeBps",
      "outputs": [],
      "stateMutability": "nonpayable",
      "type": "function"
    },
    {
      "inputs": [
        {
          "internalType": "address",
          "name": "newReceiver",
          "type": "address"
        }
      ],
      "name": "setFeeReceiver",
      "outputs": [],
      "stateMutability": "nonpayable",
      "type": "function"
    },
    {
      "inputs": [
        {
          "internalType": "uint256",
          "name": "newMax",
          "type": "uint256"
        }
      ],
      "name": "setMaxTicketsPerBuy",
      "outputs": [],
      "stateMutability": "nonpayable",
      "type": "function"
    },
    {
      "inputs": [
        {
          "internalType": "uint256",
          "name": "newLeadTimeSeconds",
          "type": "uint256"
        }
      ],
      "name": "setSalesCloseLeadTime",
      "outputs": [],
      "stateMutability": "nonpayable",
      "type": "function"
    },
    {
      "inputs": [
        {
          "internalType": "uint256",
          "name": "newPrice",
          "type": "uint256"
        }
      ],
      "name": "setTicketPrice",
      "outputs": [],
      "stateMutability": "nonpayable",
      "type": "function"
    },
    {
      "inputs": [
        {
          "internalType": "uint8[6]",
          "name": "pctSplit",
          "type": "uint8[6]"
        }
      ],
      "name": "setWinnerSplit",
      "outputs": [],
      "stateMutability": "nonpayable",
      "type": "function"
    },
    {
      "inputs": [
        {
          "internalType": "uint256",
          "name": "drawTimestamp",
          "type": "uint256"
        },
        {
          "internalType": "bytes32",
          "name": "commitHash",
          "type": "bytes32"
        }
      ],
      "name": "startNextRound",
      "outputs": [],
      "stateMutability": "nonpayable",
      "type": "function"
    },
    {
      "inputs": [
        {
          "internalType": "uint256",
          "name": "",
          "type": "uint256"
        }
      ],
      "name": "ticketOwner",
      "outputs": [
        {
          "internalType": "address",
          "name": "",
          "type": "address"
        }
      ],
      "stateMutability": "view",
      "type": "function"
    },
    {
      "inputs": [],
      "name": "ticketPrice",
      "outputs": [
        {
          "internalType": "uint256",
          "name": "",
          "type": "uint256"
        }
      ],
      "stateMutability": "view",
      "type": "function"
    },
    {
      "inputs": [
        {
          "internalType": "uint256",
          "name": "",
          "type": "uint256"
        }
      ],
      "name": "ticketRoundId",
      "outputs": [
        {
          "internalType": "uint256",
          "name": "",
          "type": "uint256"
        }
      ],
      "stateMutability": "view",
      "type": "function"
    },
    {
      "inputs": [
        {
          "internalType": "address",
          "name": "newOwner",
          "type": "address"
        }
      ],
      "name": "transferOwnership",
      "outputs": [],
      "stateMutability": "nonpayable",
      "type": "function"
    },
    {
      "inputs": [],
      "name": "usdt",
      "outputs": [
        {
          "internalType": "contract IERC20Metadata",
          "name": "",
          "type": "address"
        }
      ],
      "stateMutability": "view",
      "type": "function"
    },
    {
      "inputs": [
        {
          "internalType": "uint256",
          "name": "",
          "type": "uint256"
        }
      ],
      "name": "winnerPct",
      "outputs": [
        {
          "internalType": "uint8",
          "name": "",
          "type": "uint8"
        }
      ],
      "stateMutability": "view",
      "type": "function"
    }
  ],
  "bytecode": "0x60a0346200060657601f6200215e38819003918201601f19168301926001600160401b03929091838511838610176200060a578190604095865283398101916101e082840312620006065762000055826200061e565b92602093620000668585016200061e565b928685015190606086015160808701519061ffff821680920362000606576200009260a089016200061e565b968660df8a01121562000606578a519660c08801888110868211176200060a578c52876101808b01918211620006065760c08b01905b828210620005eb57505051966101c06101a08b01519a01519860018060a01b03809316968715620005d4575f80546001600160a01b031981168a1782558f5191999195949392919085167f8be0079c531659141344cd1fd0a4f28419497f9722a3daafe3b4186f6b6457e08b80a38360019a8b805516948515620005a9575080156200057a5785156200054d578893895b600681106200051057506064809503620004e2576127108811620004b4578216156200048557428d111562000455578b151594620001978662000633565b8b1562000429578d620001ab8d426200066b565b1015620003f757608052600255600394855560048a8155600580546001600160b01b03191690971760109290921b62010000600160b01b031691909117909555869081898e5b60068310620003d45750505050600655878a03978a8911620003c1576200021990426200066b565b8a11156200038e57506200022d9062000633565b600754908582018092116200037b5781600755600854918b519460e08601908682109082111762000368579088888c8f8f6009908f9a99989783528c8c52808c01938452828c0195865260608c01968d885260808d01998a5260a08d019b8c5260c08d019e8f528d52528a20985199858b1015620003555750937ff0edc9d0d37f939a5dbd282eff2d5abe6467f9e268ea4daf34ce17b6916552669d9b99979360ff97936006979360609f9d9b978a199b8b8d8b54169116178955519088015551600287015551908501555190830155516005820155019251151591835416911617905560075495875193845283015285820152a251611ad090816200068e8239608051818181610cd901528181610f4701528181610fbe015281816112fe01526113e20152f35b634e487b7160e01b815260218852602490fd5b634e487b7160e01b875260418552602487fd5b634e487b7160e01b855260118352602485fd5b8b5162461bcd60e51b81528085018c9052601060248201526f53414c45535f434c4f53453c3d4e4f5760801b6044820152fd5b634e487b7160e01b875260118552602487fd5b9091929360ff908186511691858a1b92831b921b19161793019101898e620001f1565b8f8f8691519062461bcd60e51b82526004820152600c60248201526b4c4541445f544f4f5f42494760a01b6044820152fd5b8f8f8691519062461bcd60e51b82526004820152600660248201526504c4541443d360d41b6044820152fd5b508d5162461bcd60e51b8152600481018e90526009602482015268445241573c3d4e4f5760b81b60448201528390fd5b508d5162461bcd60e51b8152600481018e9052600860248201526704645455f52433d360c41b60448201528390fd5b8f8f8691519062461bcd60e51b8252600482015260086024820152674645453e3130302560c01b6044820152fd5b8f8f8691519062461bcd60e51b8252600482015260086024820152670504354213d3130360c41b6044820152fd5b94620005279060ff8760051b87015116906200066b565b945f19811462000539578b0162000159565b634e487b7160e01b8b52601160045260248bfd5b508d5162461bcd60e51b8152600481018e9052600560248201526404d41583d360dc1b6044820152606490fd5b508d5162461bcd60e51b8152600481018e90526007602482015266050524943453d360cc1b6044820152606490fd5b62461bcd60e51b8152600481018f905260066024820152650555344543d360d41b6044820152606490fd5b8d51631e4fbdf760e01b81525f6004820152602490fd5b815160ff8116810362000606578152908c01908c01620000c8565b5f80fd5b634e487b7160e01b5f52604160045260245ffd5b51906001600160a01b03821682036200060657565b156200063b57565b60405162461bcd60e51b81526020600482015260086024820152670434f4d4d49543d360c41b6044820152606490fd5b919082018092116200067957565b634e487b7160e01b5f52601160045260245ffdfe6080806040526004361015610012575f80fd5b5f3560e01c90816310416dd814611685575080631209b1f614611668578063159816501461161257806315a8f073146115665780632f3666371461132d5780632f48ab7d146112e957806332c9c762146112af57806336bcc4a914610c2b57806344fad5c314610bd757806349a812d014610bab5780636031a52f14610b8e57806363850f8d14610b5857806369188db614610b2b578063715018a614610ad45780637f1f6330146109d25780638271b4be1461076557806389ca5601146107495780638a19c8bc146106df5780638c65c81f146106655780638cd221c9146106485780638da5cb5b1461062157806395690936146104cd57806396e6640414610478578063a7c6d1e41461044e578063ab37a64f14610426578063ac27a24f146103b5578063af833f4e14610398578063b125427b1461037b578063b3f006741461034f578063c2ff12fc1461031d578063d053e31b146102f1578063e4b066ea146102d4578063e6f0681c146102b3578063efdcd974146102285763f2fde38b1461019d575f80fd5b34610224576020366003190112610224576004356001600160a01b0381811691829003610224576101cc6116ff565b811561020c575f54826001600160601b0360a01b8216175f55167f8be0079c531659141344cd1fd0a4f28419497f9722a3daafe3b4186f6b6457e05f80a3005b604051631e4fbdf760e01b81525f6004820152602490fd5b5f80fd5b34610224576020366003190112610224576004356001600160a01b038116808203610224576102556116ff565b15610283576005805462010000600160b01b03191660109290921b62010000600160b01b0316919091179055005b60405162461bcd60e51b815260206004820152600860248201526704645455f52433d360c41b6044820152606490fd5b34610224575f36600319011261022457602061ffff60055416604051908152f35b34610224575f366003190112610224576020600354604051908152f35b346102245760203660031901126102245760043560068110156102245760209060180154604051908152f35b34610224576020366003190112610224576004355f52600a602052602060018060a01b0360405f205416604051908152f35b34610224575f3660031901126102245760055460405160109190911c6001600160a01b03168152602090f35b34610224575f366003190112610224576020601f54604051908152f35b34610224575f366003190112610224576020600454604051908152f35b346102245760203660031901126102245760043561ffff8116809103610224576103dd6116ff565b61271081116103f65761ffff1960055416176005555f80f35b60405162461bcd60e51b81526020600482015260086024820152674645453e3130302560c01b6044820152606490fd5b34610224576020366003190112610224576020610444600435611948565b6040519015158152f35b34610224576020366003190112610224576004355f52600b602052602060405f2054604051908152f35b34610224576020366003190112610224576004356104946116ff565b801561049f57600455005b60405162461bcd60e51b815260206004820152600660248201526504c4541443d360d41b6044820152606490fd5b34610224575f3660031901126102245760c06040516104eb81611746565b36903760c06040516104fc81611746565b36903760c060405161050d81611746565b36903760208054601e54601f549260405180600c905f905b6006821061060b5750505061053981611746565b6040519460125f875b600682106105ec5750505061055686611746565b6040519360185f865b600682106105d65750505090610592929161057986611746565b60405196875284870152604086015260608501906116d8565b5f939061012084015b600686106105b7576102a0856105b56101e08201876116d8565bf35b82516001600160a01b031681526001959095019491810191810161059b565b825481526001928301929190910190860161055f565b82546001600160a01b0316815260019283019291909101908501610542565b8254815260019283019291909101908401610525565b34610224575f366003190112610224575f546040516001600160a01b039091168152602090f35b34610224575f366003190112610224576020600754604051908152f35b34610224576020366003190112610224576004355f52600960205260e060405f2060ff815416906001810154906002810154600382015460048301549160ff6006600586015495015416946106bd60405180986116cb565b602087015260408601526060850152608084015260a0830152151560c0820152f35b34610224575f366003190112610224576007545f52600960205260c060405f2060ff815416906001810154906002810154600382015490600560048401549301549361072e60405180976116cb565b602086015260408501526060840152608083015260a0820152f35b34610224575f3660031901126102245760208054604051908152f35b3461022457604036600319011261022457602460043581356107856116ff565b60075492835f526020936009855260ff60405f20541660038110156109bf5760020361098b57600454916107b98342611792565b851115610958578315156107cc8161179f565b6107e06107d9858861181b565b9442611792565b861115610921576107f09061179f565b6001820180921161090e57816007556008546040519060e0820182811067ffffffffffffffff8211176108fb576040525f8252878201908782526040830186815260608401905f82526080850192835260a085019389855260c0860197600189525f5260098c5260405f2095519660038810156108e857509360ff9360069360609b9997937ff0edc9d0d37f939a5dbd282eff2d5abe6467f9e268ea4daf34ce17b6916552669d9b9997871998888a88541691161786555160018601555160028501555160038401555160048301555160058201550192511515918354169116179055600754956040519384528301526040820152a2005b634e487b7160e01b5f9081526021600452fd5b83634e487b7160e01b5f5260416004525ffd5b634e487b7160e01b5f9081526011600452fd5b60405162461bcd60e51b8152600481018890526010818401526f53414c45535f434c4f53453c3d4e4f5760801b6044820152606490fd5b85600d6064926040519262461bcd60e51b845260048401528201526c222920abafaa27a7afa9a7a7a760991b6044820152fd5b60405162461bcd60e51b815260048101869052600d818401526c21aaa92fa727aa2fa22920aba760991b6044820152606490fd5b82634e487b7160e01b5f5260216004525ffd5b346102245760c03660031901126102245760c4368111610224576109f46116ff565b60405190610a0182611746565b600490825b818310610aba575f80855b60068310610a915760648203610a61575f6004815b60068110610a35576006839055005b9091823560ff90818116809103610224576001926020928560031b92831b921b19161793019101610a26565b60405162461bcd60e51b81526020600482015260086024820152670504354213d3130360c41b6044820152606490fd5b90610aad610ab39160ff610aa586866118a5565b511690611792565b9261180d565b9190610a11565b823560ff8116810361022457815260209283019201610a06565b34610224575f36600319011261022457610aec6116ff565b5f80546001600160a01b0319811682556001600160a01b03167f8be0079c531659141344cd1fd0a4f28419497f9722a3daafe3b4186f6b6457e08280a3005b34610224575f366003190112610224576060610b45611908565b9060405192835260208301526040820152f35b3461022457602036600319011261022457600435600681101561022457601201546040516001600160a01b039091168152602090f35b34610224575f366003190112610224576020600854604051908152f35b3461022457602036600319011261022457600435600681101561022457602090600c0154604051908152f35b3461022457602036600319011261022457600435610bf36116ff565b8015610bfe57600355005b60405162461bcd60e51b815260206004820152600560248201526404d41583d360dc1b6044820152606490fd5b3461022457602036600319011261022457610c446116ff565b610c4c611882565b600754805f52600960205260405f209060ff825416600381101561129b57600103611269576001820154421061123357600382015490600682106112045760ff600684015416156111d3576040516020810190600435825260208152610cb18161172a565b5190206005840154036111a1576040516370a0823160e01b81523060048201526020816024817f00000000000000000000000000000000000000000000000000000000000000006001600160a01b03165afa908115611196575f9161114e575b5080156111215760055492610d38612710610d3061ffff87168561177f565b04809361181b565b9360405193600435602086015244604086015242606086015243608086015260a08501528160c08501528460e085015260e084528361010081011067ffffffffffffffff6101008601111761110d57610100840160405283516020850120916004870154610da96101008701611746565b60c03661010088013760405191610dbf83611762565b610180928336823760405193610dd485611762565b3685375f93845b60068610611026575050505050507f3a46f9e69b9ae5107764a56aad641d22036e13f7f3bbaa1a28c698a8f246abbf916080918480610fa9575b505085601e5583601f5560075493846020556040516020810190600435825260208152610e418161172a565b5190209160405192835260208301528660408301526060820152a25f5b60068110610e7757835460ff1916600217845560018055005b610e858161010084016118a5565b515f818152600a60205260409020549091906001600160a01b03168015610f7957610f3b926064610ec860ff610eba8661169f565b90549060031b1c168861177f565b048184600c015583601201836001600160601b0360a01b82541617905580846018015580610f40575b7f4b6eed1faffa83a67a0174fd8fb2cdf6f861ebe370c5123abaaebc2b674e9b1260406007549260ff610f238861169f565b90549060031b1c1682519182526020820152a461180d565b610e5e565b610f7481847f00000000000000000000000000000000000000000000000000000000000000006001600160a01b03166118b6565b610ef1565b60405162461bcd60e51b8152602060048201526008602482015267057494e4e45523d360c41b6044820152606490fd5b610fe39160101c6001600160a01b03908116907f0000000000000000000000000000000000000000000000000000000000000000166118b6565b60075460018060a01b0360055460101c16907f6fe296e805108cd514fea415210be4016149b01eeb08effbe130951b6a5f6c0b6020604051888152a38784610e15565b6040518860208201528660408201526040815280606081011067ffffffffffffffff60608301111761110d5760608101604052602081519101209061106b878661181b565b9081156110f9576110846110c8926110f3940689611792565b906110c26110b88a61109881858a8c6119b0565b936110b28a83838c6110ac8b8383876119b0565b936119f0565b89611a58565b918383888a6119f0565b85611a58565b958a6110ed826101006110e66110e0838d8a8c6119b0565b8b611792565b93016118a5565b5261180d565b94610ddb565b634e487b7160e01b5f52601260045260245ffd5b634e487b7160e01b5f52604160045260245ffd5b60405162461bcd60e51b81526020600482015260056024820152640504f543d360dc1b6044820152606490fd5b905060203d60201161118f575b601f8101601f1916820167ffffffffffffffff81118382101761110d57602091839160405281010312610224575184610d11565b503d61115b565b6040513d5f823e3d90fd5b60405162461bcd60e51b815260206004820152600a60248201526910905117d4d150d4915560b21b6044820152606490fd5b60405162461bcd60e51b81526020600482015260096024820152681393d7d0d3d353525560ba1b6044820152606490fd5b60405162461bcd60e51b81526020600482015260076024820152662722a2a21f1e9b60c91b6044820152606490fd5b60405162461bcd60e51b815260206004820152600e60248201526d445241575f544f4f5f4541524c5960901b6044820152606490fd5b60405162461bcd60e51b815260206004820152600a6024820152691393d517d0d313d4d15160b21b6044820152606490fd5b634e487b7160e01b5f52602160045260245ffd5b346102245760203660031901126102245760043560068110156102245760ff6112d960209261169f565b9190546040519260031b1c168152f35b34610224575f366003190112610224576040517f00000000000000000000000000000000000000000000000000000000000000006001600160a01b03168152602090f35b3461022457602080600319360112610224576004359061134b611882565b600780545f526009825260405f209060ff825416600381101561129b5761137290156117d6565b60028201544210156115325783156115055760035484116114d8576113998460025461177f565b6040516323b872dd60e01b858201523360248201523060448201526064808201839052815260a081019067ffffffffffffffff82118183101761110d5760409190915261140f907f00000000000000000000000000000000000000000000000000000000000000006001600160a01b0316611828565b6008918254925f5b8781106114915750545f1981019490851161147d5760030161143a878254611792565b90555493604051958652850152604084015260608301527fd30fc8f419840a5e9cc301144b85f6e0f8dcef82aa3a3fb58cc67c8cb8ae0c4860803393a360018055005b634e487b7160e01b5f52601160045260245ffd5b6114d39082545f52600a885260405f20336001600160601b0360a01b825416179055835483545f52600b895260405f20556114cc835461180d565b835561180d565b611417565b826064916040519162461bcd60e51b835260048301526024820152660a2a8b27c9a82b60cb1b6044820152fd5b60405162461bcd60e51b815260048101849052600560248201526405154593d360dc1b6044820152606490fd5b60405162461bcd60e51b815260048101849052600c60248201526b14d0531154d7d0d313d4d15160a21b6044820152606490fd5b34610224575f366003190112610224576007545f52600960205260405f20805460ff8116600381101561129b5761159d90156117d6565b600282015442106115e15760019060ff19161790556007547f1701d916f21787d6493f593d0f2302a787648f8c19862fe1a42d963b2062671f6020604051428152a2005b60405162461bcd60e51b8152602060048201526009602482015268544f4f5f4541524c5960b81b6044820152606490fd5b346102245760203660031901126102245760043561162e6116ff565b801561163957600255005b60405162461bcd60e51b8152602060048201526007602482015266050524943453d360cc1b6044820152606490fd5b34610224575f366003190112610224576020600254604051908152f35b34610224575f36600319011261022457602090601e548152f35b9060068210156116b757601f8260051c600601921690565b634e487b7160e01b5f52603260045260245ffd5b90600382101561129b5752565b5f915b600683106116e857505050565b6001908251815260208091019201920191906116db565b5f546001600160a01b0316330361171257565b60405163118cdaa760e01b8152336004820152602490fd5b6040810190811067ffffffffffffffff82111761110d57604052565b60c0810190811067ffffffffffffffff82111761110d57604052565b610180810190811067ffffffffffffffff82111761110d57604052565b8181029291811591840414171561147d57565b9190820180921161147d57565b156117a657565b60405162461bcd60e51b81526020600482015260086024820152670434f4d4d49543d360c41b6044820152606490fd5b156117dd57565b60405162461bcd60e51b81526020600482015260086024820152672727aa2fa7a822a760c11b6044820152606490fd5b5f19811461147d5760010190565b9190820391821161147d57565b905f602091828151910182855af115611196575f513d61187957506001600160a01b0381163b155b6118575750565b604051635274afe760e01b81526001600160a01b039091166004820152602490fd5b60011415611850565b600260015414611893576002600155565b604051633ee5aeb560e01b8152600490fd5b9060068110156116b75760051b0190565b60405163a9059cbb60e01b60208201526001600160a01b039092166024830152604480830193909352918152608081019167ffffffffffffffff83118284101761110d5761190692604052611828565b565b6007545f52600960205260405f2090600482015491600383910154908115611942578161193491611792565b5f19810190811161147d5791565b915f9150565b5f908152600b6020526040812054801561199b5760075480910361199b578152600960205260ff60408220541690600382101561198757506002141590565b634e487b7160e01b81526021600452602490fd5b5090565b90600c8110156116b75760051b0190565b5f5b8381106119c0575050505090565b846119cb828461199f565b51146119df576119da9061180d565b6119b2565b9250506119ec925061199f565b5190565b925f5b838110611a295750600c8310611a0b575b5050505050565b611a1883611a1e9561199f565b5261199f565b525f80808080611a04565b81611a34828761199f565b5114611a4857611a439061180d565b6119f3565b925050611a55925061199f565b52565b915f5b828110611a7457505090506001810180911161147d5790565b81611a7f828661199f565b5114611a9357611a8e9061180d565b611a5b565b505090509056fea2646970667358221220411a09fa49e61596b92749246d7dbc0d743727a925329b56fc25c9629dcf952564736f6c63430008140033",
  "linkReferences": {},
  "deployedLinkReferences": {},
  "immutableReferences": {
    "933": [
      {
        "length": 32,
        "start": 3289
      },
      {
        "length": 32,
        "start": 3911
      },
      {
        "length": 32,
        "start": 4030
      },
      {
        "length": 32,
        "start": 4862
      },
      {
        "length": 32,
        "start": 5090
      }
    ]
  },
  "inputSourceName": "project/contracts/UsdtLottoManual.sol",
  "buildInfoId": "solc-0_8_20-fb27f9a124a56a2019d6c5545586bf3104e532fa"
}